{"abi":[{"type":"function","name":"deposit","inputs":[],"outputs":[],"stateMutability":"payable"},{"type":"function","name":"getBalance","inputs":[],"outputs":[{"name":"","type":"uint256","internalType":"uint256"}],"stateMutability":"view"},{"type":"function","name":"getTransactionHistory","inputs":[],"outputs":[{"name":"","type":"tuple[]","internalType":"struct Ledger.TransactionInfo[]","components":[{"name":"account","type":"address","internalType":"address"},{"name":"transactionAmount","type":"uint256","internalType":"uint256"},{"name":"transactionType","type":"uint8","internalType":"enum Ledger.TransactionType"}]}],"stateMutability":"view"},{"type":"function","name":"withdraw","inputs":[{"name":"withdrawAmount","type":"uint256","internalType":"uint256"}],"outputs":[],"stateMutability":"nonpayable"},{"type":"event","name":"EthDeposited","inputs":[{"name":"account","type":"address","indexed":true,"internalType":"address"},{"name":"amount","type":"uint256","indexed":true,"internalType":"uint256"}],"anonymous":false},{"type":"event","name":"EthWithdrawn","inputs":[{"name":"account","type":"address","indexed":true,"internalType":"address"},{"name":"amount","type":"uint256","indexed":true,"internalType":"uint256"}],"anonymous":false},{"type":"error","name":"Ledger__InsufficientBalance","inputs":[]},{"type":"error","name":"Ledger__WithdrawFailed","inputs":[]}],"bytecode":{"object":"0x6080604052348015600e575f5ffd5b506109778061001c5f395ff3fe60806040526004361061003e575f3560e01c806312065fe0146100425780632e1a7d4d1461006c578063b76d4fc314610094578063d0e30db0146100be575b5f5ffd5b34801561004d575f5ffd5b506100566100c8565b6040516100639190610632565b60405180910390f35b348015610077575f5ffd5b50610092600480360381019061008d9190610679565b61010b565b005b34801561009f575f5ffd5b506100a86103a4565b6040516100b5919061084d565b60405180910390f35b6100c6610498565b005b5f5f5f3373ffffffffffffffffffffffffffffffffffffffff1673ffffffffffffffffffffffffffffffffffffffff1681526020019081526020015f2054905090565b805f5f3373ffffffffffffffffffffffffffffffffffffffff1673ffffffffffffffffffffffffffffffffffffffff1681526020019081526020015f20541015610181576040517f7c6bd92500000000000000000000000000000000000000000000000000000000815260040160405180910390fd5b805f5f3373ffffffffffffffffffffffffffffffffffffffff1673ffffffffffffffffffffffffffffffffffffffff1681526020019081526020015f205f8282546101cc919061089a565b92505081905550600160405180606001604052803373ffffffffffffffffffffffffffffffffffffffff1681526020018381526020015f60018111156102155761021461071b565b5b815250908060018154018082558091505060019003905f5260205f2090600302015f909190919091505f820151815f015f6101000a81548173ffffffffffffffffffffffffffffffffffffffff021916908373ffffffffffffffffffffffffffffffffffffffff160217905550602082015181600101556040820151816002015f6101000a81548160ff021916908360018111156102b6576102b561071b565b5b021790555050505f3373ffffffffffffffffffffffffffffffffffffffff16826040516102e2906108fa565b5f6040518083038185875af1925050503d805f811461031c576040519150601f19603f3d011682016040523d82523d5f602084013e610321565b606091505b50509050813373ffffffffffffffffffffffffffffffffffffffff167f8455ae6be5d92f1df1c3c1484388e247a36c7e60d72055ae216dbc258f257d4b60405160405180910390a3806103a0576040517f6e342fa900000000000000000000000000000000000000000000000000000000815260040160405180910390fd5b5050565b60606001805480602002602001604051908101604052809291908181526020015f905b8282101561048f578382905f5260205f2090600302016040518060600160405290815f82015f9054906101000a900473ffffffffffffffffffffffffffffffffffffffff1673ffffffffffffffffffffffffffffffffffffffff1673ffffffffffffffffffffffffffffffffffffffff16815260200160018201548152602001600282015f9054906101000a900460ff16600181111561046a5761046961071b565b5b600181111561047c5761047b61071b565b5b81525050815260200190600101906103c7565b50505050905090565b345f5f3373ffffffffffffffffffffffffffffffffffffffff1673ffffffffffffffffffffffffffffffffffffffff1681526020019081526020015f205f8282546104e3919061090e565b92505081905550600160405180606001604052803373ffffffffffffffffffffffffffffffffffffffff16815260200134815260200160018081111561052c5761052b61071b565b5b815250908060018154018082558091505060019003905f5260205f2090600302015f909190919091505f820151815f015f6101000a81548173ffffffffffffffffffffffffffffffffffffffff021916908373ffffffffffffffffffffffffffffffffffffffff160217905550602082015181600101556040820151816002015f6101000a81548160ff021916908360018111156105cd576105cc61071b565b5b02179055505050343373ffffffffffffffffffffffffffffffffffffffff167f66ff7c8f71ccc7c36152a41920d0d3b46ef3034359f76aa1498ed4478c204b5c60405160405180910390a3565b5f819050919050565b61062c8161061a565b82525050565b5f6020820190506106455f830184610623565b92915050565b5f5ffd5b6106588161061a565b8114610662575f5ffd5b50565b5f813590506106738161064f565b92915050565b5f6020828403121561068e5761068d61064b565b5b5f61069b84828501610665565b91505092915050565b5f81519050919050565b5f82825260208201905092915050565b5f819050602082019050919050565b5f73ffffffffffffffffffffffffffffffffffffffff82169050919050565b5f6106f6826106cd565b9050919050565b610706816106ec565b82525050565b6107158161061a565b82525050565b7f4e487b71000000000000000000000000000000000000000000000000000000005f52602160045260245ffd5b600281106107595761075861071b565b5b50565b5f81905061076982610748565b919050565b5f6107788261075c565b9050919050565b6107888161076e565b82525050565b606082015f8201516107a25f8501826106fd565b5060208201516107b5602085018261070c565b5060408201516107c8604085018261077f565b50505050565b5f6107d9838361078e565b60608301905092915050565b5f602082019050919050565b5f6107fb826106a4565b61080581856106ae565b9350610810836106be565b805f5b8381101561084057815161082788826107ce565b9750610832836107e5565b925050600181019050610813565b5085935050505092915050565b5f6020820190508181035f83015261086581846107f1565b905092915050565b7f4e487b71000000000000000000000000000000000000000000000000000000005f52601160045260245ffd5b5f6108a48261061a565b91506108af8361061a565b92508282039050818111156108c7576108c661086d565b5b92915050565b5f81905092915050565b50565b5f6108e55f836108cd565b91506108f0826108d7565b5f82019050919050565b5f610904826108da565b9150819050919050565b5f6109188261061a565b91506109238361061a565b925082820190508082111561093b5761093a61086d565b5b9291505056fea26469706673582212206daab27330c8a27d398585829a639d8254191ce9448430ac1cec6543192a032c64736f6c634300081e0033","linkReferences":{}},"methodIdentifiers":{"deposit()":"d0e30db0","getBalance()":"12065fe0","getTransactionHistory()":"b76d4fc3","withdraw(uint256)":"2e1a7d4d"},"id":16}