{"abi":[{"type":"function","name":"deposit","inputs":[],"outputs":[],"stateMutability":"payable"},{"type":"function","name":"getBalance","inputs":[],"outputs":[{"name":"","type":"uint256","internalType":"uint256"}],"stateMutability":"view"},{"type":"function","name":"withdraw","inputs":[{"name":"withdrawAmount","type":"uint256","internalType":"uint256"}],"outputs":[],"stateMutability":"nonpayable"},{"type":"event","name":"EthDeposited","inputs":[{"name":"account","type":"address","indexed":true,"internalType":"address"},{"name":"amount","type":"uint256","indexed":true,"internalType":"uint256"}],"anonymous":false},{"type":"event","name":"EthWithdrawn","inputs":[{"name":"account","type":"address","indexed":true,"internalType":"address"},{"name":"amount","type":"uint256","indexed":true,"internalType":"uint256"}],"anonymous":false},{"type":"error","name":"Ledger__InsufficientBalance","inputs":[]},{"type":"error","name":"Ledger__WithdrawFailed","inputs":[]}],"bytecode":{"object":"0x6080604052348015600e575f5ffd5b506104b18061001c5f395ff3fe608060405260043610610033575f3560e01c806312065fe0146100375780632e1a7d4d14610061578063d0e30db014610089575b5f5ffd5b348015610042575f5ffd5b5061004b610093565b6040516100589190610335565b60405180910390f35b34801561006c575f5ffd5b506100876004803603810190610082919061037c565b6100d6565b005b610091610285565b005b5f5f5f3373ffffffffffffffffffffffffffffffffffffffff1673ffffffffffffffffffffffffffffffffffffffff1681526020019081526020015f2054905090565b805f5f3373ffffffffffffffffffffffffffffffffffffffff1673ffffffffffffffffffffffffffffffffffffffff1681526020019081526020015f2054101561014c576040517f7c6bd92500000000000000000000000000000000000000000000000000000000815260040160405180910390fd5b805f5f3373ffffffffffffffffffffffffffffffffffffffff1673ffffffffffffffffffffffffffffffffffffffff1681526020019081526020015f205f82825461019791906103d4565b925050819055505f3373ffffffffffffffffffffffffffffffffffffffff16826040516101c390610434565b5f6040518083038185875af1925050503d805f81146101fd576040519150601f19603f3d011682016040523d82523d5f602084013e610202565b606091505b50509050813373ffffffffffffffffffffffffffffffffffffffff167f8455ae6be5d92f1df1c3c1484388e247a36c7e60d72055ae216dbc258f257d4b60405160405180910390a380610281576040517f6e342fa900000000000000000000000000000000000000000000000000000000815260040160405180910390fd5b5050565b345f5f3373ffffffffffffffffffffffffffffffffffffffff1673ffffffffffffffffffffffffffffffffffffffff1681526020019081526020015f205f8282546102d09190610448565b92505081905550343373ffffffffffffffffffffffffffffffffffffffff167f66ff7c8f71ccc7c36152a41920d0d3b46ef3034359f76aa1498ed4478c204b5c60405160405180910390a3565b5f819050919050565b61032f8161031d565b82525050565b5f6020820190506103485f830184610326565b92915050565b5f5ffd5b61035b8161031d565b8114610365575f5ffd5b50565b5f8135905061037681610352565b92915050565b5f602082840312156103915761039061034e565b5b5f61039e84828501610368565b91505092915050565b7f4e487b71000000000000000000000000000000000000000000000000000000005f52601160045260245ffd5b5f6103de8261031d565b91506103e98361031d565b9250828203905081811115610401576104006103a7565b5b92915050565b5f81905092915050565b50565b5f61041f5f83610407565b915061042a82610411565b5f82019050919050565b5f61043e82610414565b9150819050919050565b5f6104528261031d565b915061045d8361031d565b9250828201905080821115610475576104746103a7565b5b9291505056fea26469706673582212200ddb49e452077af13f7eb3edd7c98d26a20ec4eac8d12659593310e6df6f597464736f6c634300081e0033","linkReferences":{}},"methodIdentifiers":{"deposit()":"d0e30db0","getBalance()":"12065fe0","withdraw(uint256)":"2e1a7d4d"},"id":21}